:100000000C942A000C9434000C9434000C943400AA
:100010000C9434000C9434000C9434000C94340090
:100020000C9434000C9434000C9434000C94340080
:100030000C9434000C9434000C9434000C94340070
:100040000C9434000C9434000C9434000C94340060
:100050000C94340011241FBECFE5D8E0DEBFCDBF25
:100060000E9441000C9460000C940000009741F045
:10007000ECECFAE03197F1F700C000000197F6CF01
:100080000895D79ADF9AA79AAF9A8F9A979888E897
:1000900093E10E943600979A8CE494E00E94360027
:1000A0009798AF9880E29EE40E943600979A8CE77A
:1000B00095E10E9436009798AF9A80E29EE4E9CFDE
:0400C000F894FFCFE2
:00000001FF
