:10000000CFC0E9C0E8C054C6E6C0E5C0E4C0E3C064
:10001000E2C0E1C0E0C0EEC13BC1DDC0DCC0DBC07E
:10002000DAC0D9C0D8C0480145013A0133012101E5
:10003000190110010501FE00DD00C6009F009600B9
:10004000880086007C0064005B0058004E002B4353
:100050004950434C4F5345000D0A002B43474E5324
:10006000494E4600486F73743A206C756B76616434
:100070002E757365726D642E6E657400204854543D
:10008000502F312E31002F00474554202F39343561
:100090003232392F30002B43495053454E44002B08
:1000A00043495053544152543D22544350222C2230
:1000B0006C756B7661642E757365726D642E6E65FA
:1000C00074222C383000436F6E6E656374696F6EF6
:1000D0003A206B6565702D616C697665002B435322
:1000E00054543D22706C7573222C22706C757367AA
:1000F000736D222C22706C757367736D22002B4315
:1001000049494352002B43495053544154555300DD
:100110002B43474154543D31002B434D47463D311D
:10012000002B434D47533D2235333031383434387A
:100130003522002B4349465352002B43474E535020
:1001400057523D31004530004154002A614C6F4602
:1001500026002A614C6F4E26002A6C496F46260005
:100160002A6C496D26002A68452600246F4E6E25AC
:10017000002A6F4E26002A6F4626002A704126006C
:100180002A724526002A66496E2600434F4E4E4588
:100190004354204F4B004552524F52004F4B0000EA
:1001A00011241FBECFE5D4E0DEBFCDBF10E0A0E636
:1001B000B0E0E4E1FFE002C005900D92A237B10784
:1001C000D9F722E0A2E7B0E001C01D92A43BB2073C
:1001D000E1F7F6D49DC614CF909375008093740018
:1001E00008959093730080937200089590BD89B92B
:1001F00088E18AB986E880BD8AB188698AB908959C
:100200002FB7F894909179009F5F91702FBF209144
:100210007B009217E1F3E92FF0E0E458FF4F808371
:1002200090937900559A0895CF93DF93EC018991CB
:10023000882311F0E5DFFBCFDF91CF910895CF93B5
:10024000DF93FC018491EF012196882319F0D8DF18
:10025000FE01F8CFDF91CF910895CF93DF93CDB713
:10026000DEB761970FB6F894DEBF0FBECDBFAB010E
:10027000BE016F5F7F4F0FD6CE010196D5DF61962D
:100280000FB6F894DEBF0FBECDBFDF91CF910895BA
:100290001F920F920FB60F9211248F939F93EF939B
:1002A000FF939091790080917B00981771F0809175
:1002B0007B008F5F817080937B00E0917B00F0E09A
:1002C000E458FF4F80818CB901C05598FF91EF91A0
:1002D0009F918F910F900FBE0F901F901895909146
:1002E0007E0080917F00981781F02FB7F89480915D
:1002F0007F008F5F80937F00E0917F00F0E0E05807
:10030000FF4F808190E02FBF08958FEF9FEF0895FA
:100310000F931F93CF93DF938C0180917A008823F2
:1003200091F0C02FD12FDBDF181619061CF48D3089
:10033000910539F4188220917A00215020937A0097
:1003400002C08993F0CFC801DF91CF911F910F9127
:1003500008950F931F93CF93DF93EC0180917A0060
:10036000882359F100917200109173000115110555
:1003700031F48091740090917500892BD1F0CE01F9
:10038000C7DF88818823C9F00115110561F4E09168
:100390007400F0917500309781F0CE01DF91CF911C
:1003A0001F910F910994CE01F8010995882329F036
:1003B000EECF80917F0080937E00DF91CF911F91DF
:1003C0000F910895CF93DF93C8EED3E088DF97FFB6
:1003D0000CC02197D8F386E69EE00197F1F7000064
:1003E0002097A1F780E090E002C0CD2BD9F3DF91F8
:1003F000CF9108951F920F920FB60F9211248F93F1
:100400009F93EF93FF938CB1E0917E00EF5F90910B
:100410007F00E91305C080917F0080937E0012C0A9
:10042000882381F08D3031F490917A009F5F909312
:100430007A0002C08A3031F0E0937E00F0E0E058AC
:10044000FF4F8083FF91EF919F918F910F900FBE8F
:100450000F901F901895DF92EF92FF920F931F93CA
:10046000CF93DF93D82E8B01EA017901809393011A
:1004700080E1D81629F0E6E2F0E085919491DFDE84
:10048000E0919301EE2341F0F0E0EE0FFF1FEA5DF3
:10049000FF4F85919491D3DE0115110511F0C8012C
:1004A000CEDE209711F0CE01BFDECAE4D0E0FE011F
:1004B00085919491C4DE8CE0D81242C088EC90E023
:1004C000A2D0E0E4F0E085919491B9DE02E410E07E
:1004D000F80185919491B3DE80918301909184011C
:1004E000A3DEF80185919491AADE8091900190910C
:1004F00091019ADEF80185919491A1DE80918501A8
:100500007FDEF801859194919ADE8091800178DEFA
:10051000E4E4F0E08591949192DEFE01859194915E
:100520008EDEE6E4F0E08591949189DEFE0185910E
:10053000949185DEFE018591949181DE8AE160DEF1
:10054000C70164E670E056D47093960160939501FC
:1005500082E08093940180E0ECD380E0DF91CF9142
:100560001F910F91FF90EF90DF90089564E670E087
:1005700041D4709396016093950182E08093940139
:1005800080E0D7D380E0089580919E01811112C050
:1005900080E380938001829902C0839B03C081E342
:1005A0008093850182990BC0839909C080E3809371
:1005B000850105C0813019F481E380938001809129
:1005C000940118161CF480E016D0F9CF089580919C
:1005D000940118161CF480E00ED0F9CF08953E9ACD
:1005E00086B1876086B9379A0895369A3699FECFD4
:1005F00084B195B10895CF93C82F8FE991E0A9DE1A
:100600008C2FCF91CBC3009739F0E6E6FEE031970F
:10061000F1F700000197F7CF08951F93CF93DF9371
:10062000EC018091940110919C018823A1F013307A
:1006300039F16CE971E0CE01F1D3892B19F41092F4
:10064000940109C066E971E0CE01E8D3892B19F461
:100650008FEF80939401111113C060E670E0CE011A
:1006600000D4892B69F0F8948FE991E0909384018C
:100670008093830178941092940181E080939C018F
:1006800080919C01833041F46BE871E0CE01C6D3C8
:10069000892B11F41092940165E871E0CE01C7D363
:1006A000892B59F010929401C398C19810929E0121
:1006B00081E080939C01CCE6D0E060E871E0CE015F
:1006C000B6D3892B59F010929401C398C198109217
:1006D0009E0181E080939C01CCE6D0E06BE771E065
:1006E000CE01A5D3892B59F010929401C398C198DB
:1006F00081E080939E0180939C01CCE6D0E066E788
:1007000071E0CE0194D3892B59F010929401C398D3
:10071000C19810929E0181E080939C01CCE6D0E0CC
:1007200061E771E0CE0183D3892B59F010929401D7
:10073000C39AC19A81E080939E0180939C01CCE68C
:10074000D0E06BE671E0CE0172D3892B59F01092A4
:100750009401C39AC19A81E080939E0180939C0189
:10076000CCE6D0E066E671E0CE0161D3892B61F082
:1007700010929401C59A84EF91E045DFC59881E01D
:1007800080939C01CCE6D0E060E671E0CE014FD3CF
:10079000892B41F010929401C29A81E080939C01D0
:1007A000CCE6D0E069E571E0CE0141D3892B41F080
:1007B00010929401C29881E080939C01CCE6D0E035
:1007C00062E571E0CE0133D3892B41F010929401A0
:1007D000C49A81E080939C01CCE6D0E06BE471E0A8
:1007E000CE0125D3892B31F010929401C49881E079
:1007F00080939C01DF91CF911F91089520919401E6
:100800001216BCF42130C1F4209197013091980167
:10081000A9014F5F5F4F509398014093970140911A
:100820009501509196014217530768F42EEF2093DB
:100830009401FC011282089521502093940110929A
:10084000980110929701089581E080939C01109285
:100850009D0188EE93E0D7DEC0981092780088EF73
:100860009AE2D1DE809178008F5F8093780028EC47
:1008700030E040E050E060E070E081E0ECDDA7DED9
:1008800080939B0187FF08C0809178008B3050F3E4
:1008900086E080939C0102C08111E4CF1092780021
:1008A00080919C01863009F4A3C0809178008F5F0D
:1008B0008093780028EC30E040E050E060E070E0A9
:1008C00082E0C9DD84DE80939B0187FF08C08091B0
:1008D0007800863050F386E080939C0102C081113D
:1008E000E4CF1092780080919C01863009F480C09A
:1008F000809178008F5F8093780028EC30E040E0B2
:1009000050E060E070E089E0A6DD61DE80939B014D
:1009100087FF08C080917800833050F386E0809391
:100920009C0102C08111E4CF1092780080919C015B
:10093000863009F45DC0809178008F5F80937800E5
:1009400020E737E140E050E060E070E088E083DDE0
:100950003EDE80939B0187FF08C080917800833042
:1009600050F386E080939C0102C08111E4CF109285
:10097000780080919C01863009F43AC0E6E2F0E00C
:10098000859194915CDCECE2F0E08591949157DCE8
:10099000EAE4F0E08591949152DC88EC90E033DE5B
:1009A00083E080939C01809178008F5F8093780032
:1009B00028EB3BE040E050E060E070E08BE04BDD96
:1009C00006DE80939B0187FF08C080917800843009
:1009D00050F386E080939C0102C08111E4CF109215
:1009E000780080919C01863019F081E080939C0111
:1009F0000895CF93DF9380919C01813009F0A9C0C5
:100A00001092780080919D01882391F083E080937B
:100A10009C01809178008F5F8093780088EE93E04E
:100A2000A5DDB2DD80939B0118169CF3109278002F
:100A300083E080939C01809178008F5F80937800A1
:100A400028EB3BE040E050E060E070E08CE003DD4C
:100A5000BEDD80939B0187FF28C0809178008330A2
:100A600050F3CAE4D0E0FE0185919491E8DBFE01E9
:100A700085919491E4DB8AE1C3DB8CEB92E0C3DDEA
:100A8000E6E2F0E085919491DADBECE4F0E0859128
:100A90009491D5DBFE0185919491D1DB88EC90E0B7
:100AA000B2DD84E080939C0102C08111C4CF10921A
:100AB000780080919C018D7F843009F47EC089E6A6
:100AC00090E0909384018093830180919D018F5FDA
:100AD00080939D0191E090939C018A3029F485DDFB
:100AE00090939A018093990180919D018F3051F4E8
:100AF00060919001709191014AE0809199019091EB
:100B00009A01D3D180919D01843119F510929C01F5
:100B100010929D0188EC90E076DD809178008F5FE7
:100B20008093780028EE33E040E050E060E070E031
:100B300081E191DC4CDD80939B0187FF08C08091AF
:100B40007800823050F381E080939C0102C08111D3
:100B5000E4CF80919C01843081F51092780083E08D
:100B600080939C01C9E6D0E0809178008F5F8093EC
:100B7000780020E737E140E050E060E070E08BE093
:100B80006ADC25DD80939B01D0938401C0938301AF
:100B900087FF08C080917800823030F386E0809330
:100BA0009C0102C08111E0CF80919C01863019F038
:100BB00081E080939C0110927800DF91CF9108959D
:100BC000C398C198C598C29882B38C6082BB80E3F9
:100BD000B82EAA24A394C9E6D0E000E710E098EE6E
:100BE000E92E93E0F92E2DE6C22E20E0D22E87B317
:100BF0008F6387BBC09AB0928501B0928001A092AA
:100C00009E01D0938401C093830110938D010093C2
:100C10008C01F0929A01E0929901D0929101C092D8
:100C200090013AD0DCDC2EEF33E040E064E670E087
:100C300080E06DD078948FE590E0D8DA8DE093E095
:100C4000CBDA02DE80919C01863089F28FE991E057
:100C500080DBCFDE8FEFA2D0F5CFCF93DF93EC0117
:100C600088819981892BA9F4ED81FE81309711F05B
:100C7000CE0109958B819C810A9720F48AE090E04F
:100C80009C838B838B819C816AE070E0B3D07983F5
:100C90006883DF91CF91089585B5886085BD85B55E
:100CA000876085BD80E983BD89B7806889BF089565
:100CB0001F920F920FB60F9211242F933F934F93D1
:100CC0008F939F93EF93FF9380E090E047E0489FDE
:100CD000F001499FF00D1124E156FD4F2081318133
:100CE0002115310521F021503109318320830196EE
:100CF0008330910561F7FF91EF919F918F914F9113
:100D00003F912F910F900FBE0F901F90189597E075
:100D1000899FF0011124E156FD4F7483638336836C
:100D20002583CB016AE070E065D0718360834283E4
:100D300008952FB7F89497E0899FF0011124E156A8
:100D4000FD4F838194816AE070E054D071836083A9
:100D500081E082832FBF089597E0899FF0011124DD
:100D6000E156FD4F8281089597E0899FF00111249B
:100D7000E156FD4F128208952FB7F89497E0899FAE
:100D8000F0011124E156FD4F74836383CB016AE0C7
:100D900070E030D0718360832FBF0895CF93DF93CD
:100DA000C82F87FF0EC0C1EAD2E08881882319F0DE
:100DB000CE01029752DF279622E0C63BD207A9F761
:100DC00016C08091A102882319F08FE992E045DFD7
:100DD000CC2369F0E7E0CE02C001112481569D4F7B
:100DE000FC012281222319F0DF91CF9136CFDF91D0
:100DF000CF910895AA1BBB1B51E107C0AA1FBB1FBF
:100E0000A617B70710F0A61BB70B881F991F5A9596
:100E1000A9F780959095BC01CD010895FB01DC01F7
:100E20008D91059080190110D9F3990B0895FB015C
:100E300055915523A9F0BF01DC014D914517411192
:100E4000E1F759F4CD010590002049F04D9140158E
:100E50004111C9F3FB014111EFCF81E090E001970F
:100E60000895FB0151915523A9F0BF01DC014D917B
:100E700045174111E1F759F4CD010190002049F0E7
:100E80004D9140154111C9F3FB014111EFCF81E0B4
:100E900090E0019708954532510518F4423008F06A
:100EA00004C0FB011082CB010895BB274A3031F406
:100EB000992322F4BDE2909581959F4F01C0BB27F5
:100EC000FB015527AA27880F991FAA1FA41710F006
:100ED000A41B83955051B9F7A05DAA3308F0A95D12
:100EE000A193009779F7B111B1931192CB0100C092
:100EF000DC01FC01672F71917723E1F7329704C081
:100F00007C916D9370836291AE17BF07C8F308950B
:040F1000F894FFCF83
:100F14002B43474E53494E46002C2C2C0031303085
:020F240030009B
:00000001FF
